:4000000000800020110000005D0200005D02000080B500AF024A034B1B68136000F04AF9BC760040FA46004010B5054C237833B9044B13B10448AFF300800123237010BD16
:400040009081FF1F00000000881C0000084B10B51BB108480849AFF300800848036803B910BD074B002BFBD0BDE81040184700BF00000000881C00009481FF1F0881FF1FE9
:400080000000000080B58EB000AF00233B6300F079FF00F091FB002387F83630002387F83530002387F83430002387F8373000F07FFF624800F01AFC00F0DCFB034687F8AE
:4000C0002F3097F82F30582B21D0582B0BDC432B15D0432B02DC002B21D021E0452B1AD0532B10D01CE0652B15D0652B02DC632B05D015E0732B06D0782B08D010E0012327
:4001000087F835300CE0012387F8363008E0002387F8363004E0012387F8343000E000BF012000F04BFF0346002B00F0858000233B6300233B6316E03B6B9BB2184600F0EF
:4001400055FF0346BB85B7F92C30184600F06CFF02463B6B9B0007F138010B4443F8242C3B6B01333B633B6B052BE5DD97F83530002B03D197F83630002B45D07B693A1DD6
:4001800010462F491A4601F075F93B1D184600F0ADFBBB693A1D10462A491A4601F06AF93B1D184600F0A2FBFB693A1D104626491A4601F05FF93B1D184600F097FB3B6A23
:4001C0003A1D104621491A4601F054F93B1D184600F08CFB7B6A3A1D10461D491A4601F049F93B1D184600F081FBBB6A3A1D104618491A4601F03EF93B1D184600F076FB9E
:40020000002387F8353017E097F83430002B13D097F837303A1D10460F491A4601F02AF93B1D184600F062FB97F83730013387F83730002387F834303EE700BF8C1C0000AB
:400240009C1C0000B01C0000C81C0000D81C0000E81C0000FC1C0000141D000080B400AFFEE700BF80B584B000AF78600F4B1A687B6813441A460E4BD31A802B09DC0B4BBC
:400280001B68FB60094B1A687B681344074A136007E001F0AFF802460C2313604FF0FF33FB60FB6818461037BD4680BD0C81FF1FF081FF1F80B586B000AF224B7B61224B05
:4002C0003B61204B7B6135E03B691B68FB603B695B68BB603B699B683B6000237B600CE0FB681A68BB681A60BB680433BB60FB680433FB607B6804337B607A683B689A4294
:40030000EED13B69DB683B6000237B6008E0BB6800221A60BB680433BB607B6804337B607A683B689A42F2D13B6910333B617B69013B7B617B69002BC6D101F061F8FFF7E4
:40034000A1FEFEE701000000B41D000080B582B000AF184B184A1A60184A184B1B6843F40073136000237B600FE07B68032B04D8134A7B6852F8233000E0124B12497A683C
:4003800041F822307B6801337B607B682F2BECD90E4B1B78DAB20E4B1A700E4B0A4A1A6000F058F900F0ECFA0B4B00221A600837BD4680BD0CED00E00004FA0514ED00E0F7
:4003C000000000005D0200000080FF1FBC7600400481FF1F08ED00E00081FF1F80B582B000AF78603960786800213A6801F039F80837BD4680BD00BF80B584B000AFF8607D
:40040000B9607A60F868B9687A6801F01FF81037BD4680BD80B483B000AF0346FB71FEE780B487B000AF7860396000233B6100237B6127E07B699B007A6813441B68BB6081
:40044000BB68FB73BB6823F0FF03BB6014E03B695B003A6813441B781A46BB68134419463B695B003A6813445B780B703B6901333B61FB7B013BFB73FB7B002BE7D17B69C9
:4004800001337B617B69212BD4D91C37BD465DF8047B704780B582B000AF334B10221A80324B18221A70324B19221A80314B18221A70314B02221A704FF0402308221A70BB
:4004C0002E4B03221A702E4B2E4A1278D2B21A702D4B08221A802D4B41F251221A800023FB7019237B6014E0FB785B00DAB2284B1B78DBB203F00103DBB21343DBB203F077
:400500000303FB704FF4F07000F02AFA7B68013B7B607B68002B02D0FB78032BE4D17B68002B02D10320FFF775FF1A4B4FF480721A80184B07221A70174B00221A70174B3B
:4005400048221A70134B00221A70154B02221A70144A144B1B78DBB243F00303DBB213700837BD4680BD00BF804000408240004084400040864000400043004000420040FA
:40058000A14600400801004922420040204200402542004004400040064000400840004001400040A243004080B483B000AF1E4B1B78FB711D4B1B78BB711D4B1B787B7111
:4005C0001C4AFB7903F00703DBB213701A4AFB791B09DBB21370154ABB7943F00303DBB21370134A7B7943F00303DBB21370134B3F221A70124B40221A70124B40221A70B7
:40060000114BF0221A70114B20221A70084A7B791370064ABB7913700D4B44221A700C37BD465DF8047B7047CF010049F8460040F94600406E5800406F5800400D510040F0
:400640000159004003590040205B0040235B00407658004080B582B000AF72B6404A404B1B78DBB243F00403DBB213700023FB7113E0FA7913465B0013445B00394A1344CB
:400680003B603B681A683B689B889BB210461946FFF7A4FEFB790133FB71FB79062BE8D94FF090403049FFF7BBFE30480421FFF795FE2F482F490422FFF79EFE2E4A2E4BAB
:4006C0001B78DBB243F00203DBB213702B4A2B4B1B78DBB243F00203DBB21370284A284B1B78DBB243F04003DBB21370254A254B1B78DBB243F01003DBB213702248234989
:400700000822FFF779FE224822490A22FFF774FE214822490A22FFF76FFE214821490822FFF76AFE204A204B1B78DBB243F00803DBB213701D4B61221A70FFF7ABFE1B4B3E
:4007400081221A701A4B01221A70FFF72DFF19480B490E22FFF750FE0837BD4680BD00BFE84600402C1D0000880000480076004008760040AC070048035001401350014083
:40078000A0430040C24300400251004084070048C05100408C070048F05100409807004822510040A4070048224300400048004004000840B043004080B500AF054B1B78BE
:4007C000002B04D100F008F8024B01221A7000F023F880BDAC81FF1F80B400AF094B72221A70094B20221A70084B06221A70084B47221A70074B00221A70BD465DF8047BE7
:40080000704700BF8A6500408465004024640040346400408064004080B582B000AF00F0A7F80346FB71104A0F4B1B78DBB243F02003DBB213700D4A0C4B1B78DBB243F091
:400840001003DBB213700A4A094B1B78DBB243F01003DBB2137000F069F8FB79184600F08BF80837BD4680BD9A650040946500409064004080B483B000AF0023FB710C4B7A
:400880001B78BB71BB7903F02003002B09D0094B1B78FB71BB7903F01E03002B01D00023FB71FB7918460C37BD465DF8047B7047646500404465004080B483B000AF034611
:4008C000FB7100BF074B1B78DBB203F00403002BF8D1054AFB7913700C37BD465DF8047B704700BF606400404364004080B584B000AF78600023FB810B4B1B78002B10D029
:4009000009E0FB897A6813441B781846FFF7D4FFFB890133FB81FB897A6813441B78002BEFD11037BD4680BDAC81FF1F80B400AF094A094B1B78DBB243F00203DBB2137024
:40094000064A064B1B78DBB243F00203DBB21370BD465DF8047B7047A2430040B24300400230800803D000BF01380046FCD17047EFF3108072B6704780F31088704700BF65
:4009800080B483B000AF134B7F221A70124B80221A707F23FB710CE0FB79DB0003F1804303F5F043FA79013AD2B21A70FB79013BFB71FB79002BEFD1FB79DB0003F18043A7
:4009C00003F5F04300221A700C37BD465DF8047B704700BF1181FF1F1081FF1F80B485B000AF03460A46FB711346BB710123FB60FB79172B2FD8BB79002B0ED0FB791A0187
:400A0000184B1344FA791101164A0A441278D2B242F02002D2B21A700DE0FB791A01114B1344FA7911010F4A0A441278D2B222F02002D2B21A70FB791A010A4B1344FA7900
:400A40001101084A0A441278D2B242F00102D2B21A700023FB60FB6818461437BD465DF8047B70471070004080B485B000AF0346FB710123FB60FB79172B1DD8FB791A0115
:400A8000114B1344FA7911010F4A0A441279D2B242F00402D2B21A71FB791A010A4B1344FA791101084A0A441278D2B242F00102D2B21A700023FB60FB6818461437BD46C3
:400AC0005DF8047B704700BF1070004080B485B000AF03460A46FB711346BB710123FB60FB79172B18D8FB791A010F4B13441B78DBB223F00E03FB72FB791A010A4B1344F9
:400B0000BA7902F00702D2B25200D1B2FA7A0A43D2B21A700023FB60FB6818461437BD465DF8047B704700BF1070004080B485B000AF0346FB710B46BB8013467B800123F7
:400B4000FB60BB8841F6FF72934202D14FF40053BB807B8841F6FF72934202D14FF400537B80FB79172B17D8FB79DB0003F1804303F5EC430433BB60BB68BA881A80FB793B
:400B8000DB0003F1804303F5EC430633BB60BB687A881A800023FB60FB6818461437BD465DF8047B704700BF80B485B000AF03460A46FB711346BB710123FB60FB79172BBB
:400BC00007D8FB791A01064B1344BA795A720023FB60FB6818461437BD465DF8047B70471070004090B484B000AF0446084611461A462346FB710346BB710B467B711346B2
:400C00003B710123FB60FB79172B34D8FB79DB0003F1804303F5EC43BA7902F07F02D1B27A79D201D2B20A43D2B21A70FB79DB0003F1804303F5EC433A7E1201D1B23A799E
:400C400002F00F02D2B20A43D2B25A70FB79DB0003F1804303F5EC433A7F02F00F02D2B29A70FB79DB0003F1804303F5EC430022DA700023FB60FB6818461037BD4690BC6D
:400C8000704700BF80B582B000AFFF23FB71FFF76FFE0346BB71104B1B78182B12D90F4B1B78FB710C4B1B78013BDAB20A4B1A70FB79DB0003F1804303F5F0431B78DAB2EC
:400CC000064B1A70BB791846FFF756FEFB7918460837BD4680BD00BF1081FF1F1181FF1F90B484B000AF0446084611461A462346FB710346BB800B46BB711346FB7001239A
:400D0000FB60FB795BB2002B23DBBB8823F47F6323F00F039BB2002B1BD1FB79DB0003F1804303F5F043BB60BB68BA881A80FB79DB0003F1804303F5F043BA799A70FB79BC
:400D4000DB0003F1804303F5F043FA78DA700023FB60FB6818461037BD4690BC704700BF80B485B000AF0346FB710B46BB8013467B800123FB60FB795BB2002B17DBFB7971
:400D8000DB0003F1804303F5F0430433BB60BB68BA881A80FB79DB0003F1804303F5F0430633BB60BB687A881A800023FB60FB6818461437BD465DF8047B704780B483B062
:400DC00000AF0346FB7101BE0C37BD465DF8047B704700BF80B582B000AF0346FB80FB88044A127802FB03F31846FFF7B9FD0837BD4680BD2081FF1F80B500AF02200121A8
:400E00004FF4804241F6FF7300F068FA03461A460A4B1A700C20012141F6FF7241F6FF7300F090FA03461A46054B1A70054800F0BDFA002000F0CCFA80BD00BFB481FF1F75
:400E4000B581FF1F4910000080B582B000AF444B1B781846FFF708FE424B1B781846FFF703FE414B1B78FF2B05D1FFF70BFF03461A463D4B1A703C4B1A783B4B1B7810465C
:400E80000C211A460623FFF72BFF374B1A78374B9BB2104645F6A0311A46FFF761FF304B1A78314B1B7810461946FFF77DFE304B1B78FF2B05D1FFF7E5FE03461A462C4B18
:400EC0001A702B4B1A782A4B1B7810460C211A460723FFF705FF264B1978244B9AB2254B9BB2084611461A46FFF73AFF1D4B1A781F4B1B7810461946FFF756FE184B1B78B7
:400F000018460121FFF76AFD164B1B7818460121FFF764FDFFF72CFD0346FB71164A164B1B78DBB243F02003DBB21370FB791846FFF722FD114A114B1B78DBB243F00103F9
:400F4000DBB213700D4A0D4B1B78DBB243F00203DBB213700A4B01221A600837BD4680BDB481FF1FB581FF1F2881FF1FB881FF1F2981FF1FD081FF1F97640040746400408A
:400F800080E200E080B500AF074B1B68002B04D1FFF732FF044B01221A60FFF755FF00F059F8024B1B7880BDB081FF1F6765004080B500AF00F0FCF880BD00BF80B485B0F3
:400FC00000AF0346FB71084B1B78FB73FB7B002B02D1FB79002BF6D0FB7B18461437BD465DF8047B704700BF6765004080B483B000AF0346FB80FB88C3F10503084A32F853
:4010000013309AB2074B1B889BB29BB2D31A9BB29BB21BB218460C37BD465DF8047B7047D081FF1FE481FF1F80B582B000AF0346FB80B7F90630184600F00AF90346184665
:401040000837BD4680BD00BF80B400AFBD465DF8047B704780B500AF054B1B78002B04D100F008F8024B01221A7000F019F880BDC481FF1F80B500AF074A074B1B78DBB2C8
:4010800043F00603DBB213700C2000F069F8034B00221A8080BD00BF01590040DE81FF1F80B582B000AFFFF763FC0346FB71244A234B1B78DBB243F00103DBB21370214A7C
:4010C000204B1B78DBB243F00103DBB213701E4B1B78BB71BB7943F00203BB71BB7943F00103BB71184ABB791370184B18221A70174A174B1B78DBB243F04003DBB213701E
:40110000134A134B1B78DBB223F00303DBB21370104BC8221A70104B02221A700F4A0F4B1B78DBB243F00803DBB213700A20FFF751FEFB791846FFF71FFC0837BD4680BDE1
:40114000AB430040BB4300400359004006590040055900400059004014460040275B004080B584B000AF0346FB71FB790A2B07D00C2B02D0082B06D008E0C223FB730BE0B0
:401180008223FB7308E04223FB7305E0C223FB730020FFF713FE00BF044AFB7B1370FB79184600F015F81037BD4680BD0259004080B400AF054A054B1B78DBB243F0010332
:4011C000DBB21370BD465DF8047B70470059004080B584B000AF0346FB71FB790A2B08D00C2B02D0082B08D00BE04FF48053FB600DE04FF48063FB6009E04FF48073FB6012
:4012000005E00023FB600020FFF7D8FD00BF0C4B00221A80FB6842F2107202FB03F303F62E13084A82FB03129212DB17D31A064A1360064B00221A801037BD4680BD00BFCB
:40124000DC81FF1F517BC637E081FF1FE481FF1F80B485B000AF0346FB801D4B1B889BB2002B09D01A4B1B889BB21AB213469B0013445B00FB6002E0164B1B68FB60164B4C
:401280001B889BB2FA889BB2D31A9BB2FB80B7F9063042F2107202FB03F2B7F90630002B04DDFB68D90F0B445B1004E0FB68D90F0B445B105B421A44FB6892FBF3F37B817F
:4012C0007B891BB218461437BD465DF8047B7047DC81FF1FE081FF1FDE81FF1F90B585B002AF0446084611461A462346FB710346BB710B46BB8013467B80114B01221A70C2
:401300000F4B1878F979BA7900230093002301930123FFF767FC0A4B1978BA887B88084611461A46FFF702FC054B1B7818460221FFF7CCFB024B1B7818460C37BD4690BD1E
:401340002A81FF1F90B585B002AF0446084611461A462346FB710346BB710B46BB8013467B80114B00221A700F4B1878F979BA7900230093002301930023FFF733FC0A4B5F
:401380001978BA887B88084611461A46FFF7CEFB054B1B7818460221FFF798FB024B1B7818460C37BD4690BD2B81FF1F80B485B000AF7860054B1B68FB60FB6840337A6835
:4013C0001A601437BD465DF8047B704708ED00E080B483B000AF0346FB71054AFB795B01DBB213700C37BD465DF8047B704700BF00E400E0014B1868704700BF8C81FF1F0A
:401400000E4B70B51E460E4C0025E41AA410A54204D056F8253098470135F8E700F0B8FC084B094C1E46E41AA4100025A54204D056F8253098470135F8E770BD9C1D000088
:401440009C1D00009C1D0000A41D000010B5431E0A44914204D011F8014B03F8014FF8E710BD03460244934202D003F8011BFAE7704700000EB400B54FF402719CB0ADF8CF
:4014800014106FF00041049107914FF6FF711DABADF81610084953F8042B02900690086802A9019300F064F8029B00221A701CB05DF804EB03B070478C81FF1F2DE9F047CA
:4014C0008E688246B3420C469046994640D38A8912F4906F3AD02568096902236F1A656905EB450595FBF3F57B1C4B449D4238BF1D4653050FD5294600F030FB064698B116
:4015000021693A46FFF7A2FFA38923F4906343F08003A38113E02A4600F076FB064670B95046216900F0D6FA0C23CAF80030A3894FF0FF3043F04003A381BDE8F0872661E9
:401540003E4426604E466561ED1BA560B14500D24E4632462068414600F0A0FAA36800209B1BA36023681E442660BDE8F08700002DE9F0439DB003938B8906461C060D461B
:4015800090460CD50B6953B9402100F0E7FA2860286110B90C233360CCE040236B610023099320238DF8293030238DF82A3043461C4613F8012B1AB9B4EB08090FD002E0D3
:4015C000252AF5D1F8E73046294642464B46FFF775FF013000F0A980099B4B4409932378002B00F0A28000234FF0FF3204930793059206938DF853301A9304F1010844466D
:40160000DFF8489121784846052200F039FA08F10108049B30B1C9EB00000122824013430493ECE7D80644BF20228DF85320190744BF2B228DF8532022782A2A02D00799CB
:4016400023460EE0039A0134111D12680391002ABBBF524243F0020307920792B8BF04930AE01C4622780133303A092A03D80A2000FB0121F5E7079123782E2B1AD163784E
:401680002A2B0AD1039B02341A1D1B680392002BB8BF4FF0FF3305930CE0611C00220C4623780131303B092B03D80A2000FB0232F5E70592DFF8988021784046032200F019
:4016C000DFF938B1049AC8EB00004023834013430493013421781A48062204F101088DF8281000F0CDF988B1164B33B9039B073323F007030833039313E003AB0093304606
:4017000004A92A46104BAFF3008007E003AB0093304604A92A460C4B00F092F8421C074603D0099B3B44099341E7AB895B0601D4099801E04FF0FF301DB0BDE8F08300BF20
:40174000641D000000000000BD1400005A1D0000601D00002DE9F84391461F468A680B6906469342B8BF1346C9F8003091F843200C46DDF8208012B10133C9F80030236828
:40178000990642BFD9F800300233C9F80030256815F006051CD094F843302268003318BF012392061FD5E118302081F843005A1C94F845102244023382F8431013E0304669
:4017C000394604F119020123C047013007D00135E368D9F800209B1A9D42F0DBDBE74FF0FF30BDE8F8833046394604F14302C0470130F4D02268D9F80050E36802F00602EB
:40180000042A08BF5D1B2269A3680CBF25EAE57500259342C4BF9B1AED184FF00009A9450ADA3046394604F11A020123C0470130D5D009F10109F2E70020BDE8F8830000FC
:401840002DE9FF410C461746227E98466E2A06460A9B01F1430100F0B08012D8632A23D00AD8002A00F0BD80582A40F0CC8084F84520DFF804E257E0642A1ED0692A1CD095
:40188000C1E0732A00F0B18009D86F2A2ED0702A40F0B980226842F0200222603FE0752A24D0782A3BD0AEE01A6804F14205111D1960136884F84230A9E020681A6810F0A0
:4018C000800F02D0101D186008E010F0400F02F10400186002D0B2F9003000E01368002B3EDA2D225B4284F8432039E020681A6810F0800F02D0101D186007E010F0400FC7
:4019000002F10400186001D0138800E01368227EDFF864E16F2A0CBF08220A221CE07822DFF858E184F845202268186812F0800F00F104051D6003D1550601D5038800E0F2
:401940000368D00744BF42F0200222601BB9226822F0200222601022002084F8430002E0DFF814E10A226568002DA8BF2068A560A4BF20F00400206003B965B10D46B3FB95
:40198000F2F002FB10331EF8033005F8013D03460028F4D100E00D46082A0BD12368DA0708D5236962689A42DEBF302305F8013C05F1FF35491B21612EE025681A6815F033
:4019C000800F606903D0151D1D60136808E015F0400F02F104051D60136801D0188000E01860002323610D4616E01A68111D1960156800212846626800F042F808B1401B74
:401A00006060636804E004F1420584F8422001232361002384F84330CDF800803046214603AA3B46FFF796FE013002D14FF0FF301FE0304639462A462369C0470130F5D02A
:401A400023689B0705D4E068039B9842B8BF18460FE00025E368039A9B1A9D42F3DA3046394604F119020123C0470130DED00135F0E704B0BDE8F0816B1D00007C1D000067
:401A800010B5C9B202449042034605D01C7801308C42F8D1184610BD002010BD814210B501EB020301D3421E0BE09842FBD28118D21AD34204D013F8014D01F8014DF8E710
:401AC00010BD994204D011F8014B02F8014FF8E710BD000030B500293CD051F8042C0B1F1D49002AB8BF9B180A680C4612B95A600B6030BD93420DD219685818904201BFD0
:401B00005A5852181A60426823605A6030BD994203D80A4651680029F9D1146815199D420AD11B682344D0188842136012D10868034413604B680CE002D90C23036030BD10
:401B40001C681819884201BF08684968001918605960536030BD00BFCC81FF1F70B5CC1C24F0030408340C2C38BF0C24002C064603DA0C233360002070BD8C42F9D3204AC6
:401B8000136810461946A1B10A68121B0ED40B2A03D90A608B188C501FE08B420BBF5A684A6802605A6018BF0B4616E00B464968E9E7144D2B681BB9304600F04BF8286019
:401BC0003046214600F046F8421C0346D1D0C51C25F0030585420AD11C6003F10B001A1D20F00700821A0AD05142995070BD3046E91A00F02FF80130BBD02B46ECE770BD4D
:401C0000CC81FF1FC881FF1FF8B5074615460E4621B91146BDE8F840FFF7A0BF1AB9FFF759FF2846F8BD00F025F8A8420ED238462946FFF793FF044650B131462A46FFF70E
:401C400005FC38463146FFF745FF01E03046F8BD2046F8BD38B5064C0023054608462360FEF700FB431C02D1236803B12B6038BDE881FF1F51F8040C0028BEBF091851F8BF
:401C8000043CC0180438704700000000434F4D20506F7274204F70656E0000004F766572616C6C3A20256C64206D560D0A00000050726F64756374696F6E3A20256C64200F
:401CC0006D560D0A000000004670756D703A20256C64206D560D0A0046696E6A3A20256C64206D560D0A000049676E6974696F6E3A20256C64206D560D0A000052656656EC
:401D00003A20256C64206D560D0A0A0A0A0A0A0D00000000456D756C6174656420446174613A202578200D0A0000000010510040100030510040400000000140001000140B
:401D40000140000800400140000A004C0140000200500140200000004300232D302B2000686C4C0065666745464700303132333435363738394142434445460030313233B5
:401D800034353637383961626364656600000000F8B500BFF8BC08BC9E4670474D0000004D030000F8B500BFF8BC08BC9E46704729000000C81D00000881FF1F88000000AF
:401DC000600000000000000000000000F081FF1F807F00000300000000366E01C05D0000180000000000E02EFFFFFFFF00000000000000000000000000000000000000000E
:401E0000000000000000000000000000581D00000000000000000000000000000000000000000000000000000000000000000000000000000000000000000000000000002D
:401E40000000000000000000000000002C81FF1F00000000000000000000000000000000000000000000000000000000000000000000000000000000000000000000000097
:401E80000000000000000000000000000000000000000000000000000000000000000000000000000000000000000000000000000000000000000000000000000000000022
:401EC00000000000000000000000000000000000000000000000000000000000000000000000000000000000000000000000000000000000000000000000000000000000E2
:401F000000000000000000000000000000000000000000000000000000000000000000000000000000000000000000000000000000000000000000000000000000000000A1
:401F40000000000000000000000000000000000000000000000000000000000000000000000000000000000000000000000000000000000000000000000000000000000061
:020000040003F7
:0200000480007A
:4000000006520040015B00400264004002650040100001402A01014030020140420301404A0401403D050140160601404607014003090140020B0140381401404E150140C0
:400040002816014046170140041801400A190140431A01404B1B01400840014010410140064201400443014004460140054701400848014004490140064C0140074D0140D2
:4000800008500140025101400026012561806440780F79302784800F870584388A720301040226013001310134023E105401580459045B045D105F01D804D904DF01021097
:4000C0000304040808440A400B040C600E400F06120413881404178418801A442101238029042B012C042E0830243290350436803784388839013A0C3E403F0658015940E6
:400100005A045B10C026C2DFC4E7CA6ACC5ECEDBD60F01070506060707010D071007140315011604170618051A021C071D0724052602270729032B042C07300131023202FC
:40014000350436043701580459045F01C036C102C50BC6ECC80DC9FFCAFFCBFFCEF0CF44D00CD804D904DA04DD01DF01E6C0EA40EB0200040304040C050808040A400B0404
:400180000C040E400F06104117841C101D801F01250126102702280529082B012C042D083210330434403784388039023E403F064104431049044A085080521081018610A4
:4001C000870290809102924093049408950196209B809C049D409E109F0CA480A701B001B210B480B710C026C2FEC4A9CA6ECC56CED9D006D204040805130603076C0808E7
:400200000A050C060DCA0E090F34101013C8141017351B801E062103220823042513260227E42A0931F03207330F3410360838203A083B2A3E504002450449FF4A074BFF16
:400240004C404D204EF04F05500852035302580459045A045B045C115D015F01604061A862406320870389308B0C8D1C8F22910993109514992C9B11A510A940B31FB76070
:40028000B980D804D904DC10DF010060010803100488070409400A500C040D010F0610E01208180419482068210425442701284029082C202F04302032083301350437117B
:4002C000384039083C603D08420448205208530469406A10880490809102930494089509962099049C049D409F1CA080A608A701A810AB01AD80C0E7C2FDC40ECA63CCE738
:40030000CE7AD004580459045F018406870288068B018C049E01AA02B001B302B406B501B820BE10D602D735D804D904DB0CDF010060010A04080620082409800B400C04F3
:400340000D040F461102124A13041502170419021A041B01210422102304280429022A402C0432103304342035203704388039263B403E203F465A106004688069256B0119
:400380007180720A73087940810490C49142921094089501962499089C049F0CA010A104A208A701B640C02FC2FFC43FCA2DCC66CEFFD604D804DE08E004EE0481019802A2
:4003C000EE448802E020022006200A010E08120218011D011E10221027032A042E083010320334203501360C37023E51404641034202440145C0460E480649FF4AFF4BFFC1
:400400004C624DA04EF04F41500C54185804590C5A045B045C095D115F016640670269106A306B106D106E106F12D608D804D904DB04DD90DF01009002A004800522071802
:40044000084209200C040E04108112081704181519081B0121A029082C042F403180350237183D203E04400141014328488852805B025F806004630264027940800883028F
:400480008440850188418A288B208D208E408F8890809140920493809640980499229B14A110A8C0AA08AD21AF10B004B602B704C0FFC26BC42BCAA2CCE8CE60D00FD20477
:4004C000D611D81CDE08E203E410E603E801EC02EE0813013501580459045F01800183048508880489208B108E028F019180934094029540978099109A109B209D049E0110
:40050000A102A204A501A608A808AB08AF02B3FFB41FB820BE10BF04D401D804D904DB0CDF0101200241031004880704088809010A080C140D0110841104120214081808E6
:4005400019101A0422042510270428042A0B2B012C042D022F1030903210331535103705388039263A403B803F485A405B4079408408850287018C048D018E108F049080FD
:40058000916692209340940898049A0A9B019D209F44A080A301A501AA02AB44C0EFC27FC44FCAEFCCEFCE5FD608DE08E448B882BE41D804DF0118011B0186108C018E0132
:4005C0008F2098029901E050E440003C0241043C057E0642097E0C040E80107F14181548171419101A041B601C671D021E182010210124082D242E432F1830203102321FDD
:40060000330C34803570365837013A883E013F4056025713580459045B045C115D105F01800F82F0848288C38ED390F3920C940C98049CFFA41CA6E3A841AC08B00FB2C006
:40064000B420B61CB820BA02D804D904DC01DF0100810108021004410728080209010A060B120D400E400F1410A01380152016121801190A1A041C021E401F192040210884
:40068000229023A829012A802F60310832503611370439143D203F4040024140590269146A8070A0720273148280838885088601884189108A808B188D0193C0980299011F
:4006C0009B04A110A211A320AB04AF41B340B510C0FDC2FFC4EDCAC9CCEECE36D601E2B0E404E6A0EC901301168032403B023E80C430CC10CE605004570858205B025F40CE
:400700006408830884088740930196809702D4E0D660D880E6D0930196809702A824AF02EEE093019680AB01EE201B042608C608C8014601AB04B608D004EE022404572047
:400740008C049301AA40C820D440EE808F019301AF20EE1070088C088E019E01DC01E40A1020700180018820C408DC01E604000308030A03100311011A031B011C03000313
:40078000100A000000000000003F3F008000408080008000000000000100003F3F003F0000000000001F1F001F000000000100000000000000000000000000000000000045
:4007C00000000000000000000000000000000000000000000000000000000000000000000000000000000000000000000000000000000000000000000000000000000000F9
:4008000000000000000000000000000000000000000000000000000000000000000000000000000000000000000000000000000000000000000000000000000000000000B8
:400840000000000000000000000000000000000000000000000000000000000000000000000000000000000000000000000000000000000000000000000000000000000078
:400880000000000000000000000000000000000000000000000000000000000000000000000000000000000000000000000000000000000000000000000000000000000038
:0200000490006A
:0400000000004005B7
:0200000490105A
:04000000BC90ACAF55
:0200000490303A
:020000006A395B
:0200000490402A
:4000000000000000000000000000000000000000000000000000000000000000000000000000000000000000000000000000000000000000000000000000000000000000C0
:400040000000000000000000000000000000000000000000000000000000000000000000000000000000000000000000000000000000000000000000000000000000000080
:400080000000000000000000000000000000000000000000000000000000000000000000000000000000000000000000000000000000000000000000000000000000000040
:4000C0000000000000000000000000000000000000000000000000000000000000000000000000000000000000000000000000000000000000000000000000000000000000
:0200000490501A
:0C00000000012E16106900012E237AA2C8
:00000001FF