:400000000080002011000000550200005502000080B500AF024B034A12681A6000F046F9BC760040FA46004010B5054C237833B9044B13B10448AFF300800123237010BD2C
:400040009081FF1F00000000141C000008B5064B1BB106480649AFF300800648036813B1054B03B1984708BD00000000141C00009481FF1F0881FF1F0000000080B58EB0E6
:4000800000AF00233B6300F05BFF00F07FFB002387F83630002387F83530002387F83430002387F8373000F061FF624800F008FC00F0CAFB034687F82F3097F82F30582BC3
:4000C00021D0582B0BDC432B15D0432B02DC002B21D021E0452B1AD0532B10D01CE0652B15D0652B02DC632B05D015E0732B06D0782B08D010E0012387F835300CE0012303
:4001000087F8363008E0002387F8363004E0012387F8343000E000BF012000F02DFF0346002B00F0868000233B6300233B6316E03B6B9BB2184600F037FF0346BB85B7F991
:400140002C30184600F04EFF02463B6B9B0007F138010B4443F8242C3B6B01333B633B6B052BE5DD97F83530002B03D197F83630002B45D07B693A1D10462F491A4601F062
:400180004DF93B1D184600F09BFBBB693A1D10462A491A4601F042F93B1D184600F090FBFB693A1D104626491A4601F037F93B1D184600F085FB3B6A3A1D104621491A4679
:4001C00001F02CF93B1D184600F07AFB7B6A3A1D10461D491A4601F021F93B1D184600F06FFBBB6A3A1D104618491A4601F016F93B1D184600F064FB002387F8353018E0C4
:4002000097F83430002B14D097F837303A1D10460F491A4601F002F93B1D184600F050FB97F83730013387F83730002387F834303EE73DE7181C0000281C00003C1C000055
:40024000541C0000641C0000741C0000881C0000A01C000080B400AFFEE700BF80B584B000AF78600F4B1A687B6813441A460E4BD31A802B09DC0B4B1B68FB60094B1A68D1
:400280007B681A44074B1A6007E001F089F803460C221A604FF0FF33FB60FB6818461037BD4680BD0C81FF1FF081FF1F80B586B000AF224B7B61224B3B61204B7B6135E0D1
:4002C0003B691B68FB603B695B68BB603B699B683B6000237B600CE0FB681A68BB681A60BB680433BB60FB680433FB607B6804337B607A683B689A42EED13B69DB683B604B
:4003000000237B6008E0BB6800221A60BB680433BB607B6804337B607A683B689A42F2D13B6910333B617B69013B7B617B69002BC6D101F03BF8FFF7A1FEFEE701000000C6
:40034000401D000080B582B000AF184B184A1A60184B184A126842F400721A6000237B600FE07B68032B04D8134B7A6853F8223000E0124B124A796842F821307B68013397
:400380007B607B682F2BECD90E4B1B78DAB20E4B1A700E4B0A4A1A6000F058F900F0E0FA0B4B00221A600837BD4680BD0CED00E00004FA0514ED00E000000000550200004E
:4003C0000080FF1FBC7600400481FF1F08ED00E00081FF1F80B582B000AF78603960786800213A6801F011F80837BD4680BD00BF80B584B000AFF860B9607A60F868B96890
:400400007A6800F0F9FF1037BD4680BD80B483B000AF0346FB71FEE780B487B000AF7860396000233B6100237B6126E07B699B007A6813441B68BB60BB68FB73BB6823F04F
:40044000FF03BB6013E03B695B003A6813441B781A46BB6813443A69520039680A4452781A703B6901333B61FB7B013BFB73FB7B002BE8D17B6901337B617B69222BD5D90E
:400480001C37BD465DF8047B704700BF80B582B000AF334B10221A80324B18221A70324B19221A80314B18221A70314B02221A704FF0402308221A702E4B03221A702E4B48
:4004C0002E4A1278D2B21A702D4B08221A802D4B41F251221A800023FB7019237B6014E0FB785B00DAB2284B1B78DBB203F00103DBB21343DBB203F00303FB704FF4F07004
:4005000000F01AFA7B68013B7B607B68002B02D0FB78032BE4D17B68002B02D10320FFF775FF1A4B4FF480721A80184B07221A70174B00221A70174B48221A70134B0022EB
:400540001A70154B02221A70144B144A1278D2B242F00302D2B21A700837BD4680BD00BF804000408240004084400040864000400043004000420040A1460040080100490B
:4005800022420040204200402542004004400040064000400840004001400040A243004080B483B000AF1E4B1B78FB711D4B1B78BB711D4B1B787B711C4BFA7902F00702B5
:4005C000D2B21A701A4BFA791209D2B21A70154BBA7942F00302D2B21A70134B7A7942F00302D2B21A70134B3F221A70124B40221A70124B40221A70114BF0221A70114B4F
:4006000020221A70084B7A791A70064BBA791A700D4B44221A700C37BD465DF8047B7047CF010049F8460040F94600406E5800406F5800400D510040015900400359004000
:40064000205B0040235B00407658004080B582B000AF72B63B4B3B4A1278D2B242F00402D2B21A700023FB7113E0FA7913465B0013445B00344A13443B603B681A683B68C3
:400680009B889BB210461946FFF7A4FEFB790133FB71FB79062BE8D94FF090402B49FFF7BBFE2B480421FFF795FE2A482A490422FFF79EFE294B294A1278D2B242F00202E8
:4006C000D2B21A70264B264A1278D2B242F00202D2B21A70234B234A1278D2B242F04002D2B21A70204B204A1278D2B242F01002D2B21A701D481E490822FFF779FE1D4851
:400700001D490A22FFF774FE1C4B1C4A1278D2B242F00802D2B21A70194B61221A70FFF7B5FE174B81221A70164B01221A70FFF737FF15480B490E22FFF75AFE0837BD4646
:4007400080BD00BFE8460040B81C00008C0000480076004008760040E40700480350014013500140A0430040C243004002510040D0070048C0510040D80700482243004051
:400780000048004004000840B043004080B500AF054B1B78002B04D100F008F8024B01221A7000F023F880BDAC81FF1F80B400AF094B72221A70094B20221A70084B0622FE
:4007C0001A70084B47221A70074B00221A70BD465DF8047B704700BF896500408864004027650040376500408465004080B582B000AF00F0ABF80346FB71104B0F4A127817
:40080000D2B242F02002D2B21A700D4B0C4A1278D2B242F01002D2B21A700A4B094A1278D2B242F01002D2B21A7000F069F8FB79184600F08FF80837BD4680BD9965004065
:40084000986400409465004080B483B000AF0023FB710C4B1B78BB71BB7903F02003002B09D0094B1B78FB71BB7903F01E03002B01D00023FB71FB7918460C37BD465DF867
:40088000047B7047686400404965004080B483B000AF0346FB7100BF074B1B78DBB203F00403002BF8D1054BFA791A700C37BD465DF8047B704700BF64650040446500404F
:4008C00080B584B000AF78600023FB810B4B1B78002B10D009E0FB897A6813441B781846FFF7D4FFFB890133FB81FB897A6813441B78002BEFD11037BD4680BDAC81FF1FD4
:4009000080B400AF094B094A1278D2B242F00202D2B21A70064B064A1278D2B242F00202D2B21A70BD465DF8047B7047A2430040B2430040000000000230800800F00580D1
:4009400000BF013800467FF4FCAF7047EFF3108072B6704780F31088704700BFAFF3008080B483B000AF134B7F221A70124B80221A707F23FB710CE0FB79DB0003F1804348
:4009800003F5F043FA79013AD2B21A70FB79013BFB71FB79002BEFD1FB79DB0003F1804303F5F04300221A700C37BD465DF8047B704700BF1181FF1F1081FF1F80B485B0A0
:4009C00000AF02460B46FA71BB710123FB60FB79172B2FD8BB79002B0ED0FB791A01194B1344FA791101174A0A441278D2B242F02002D2B21A700DE0FB791A01114B134482
:400A0000FA7911010F4A0A441278D2B222F02002D2B21A70FB791A010A4B1344FA791101084A0A441278D2B242F00102D2B21A700023FB60FB6818461437BD465DF8047B28
:400A4000704700BF1070004080B485B000AF0346FB710123FB60FB79172B1DD8FB791A01114B1344FA7911010F4A0A441279D2B242F00402D2B21A71FB791A010A4B13444A
:400A8000FA791101084A0A441278D2B242F00102D2B21A700023FB60FB6818461437BD465DF8047B704700BF1070004080B485B000AF02460B46FA71BB710123FB60FB79EE
:400AC000172B18D8FB791A010E4B13441B78DBB223F00E03FB72FB791A010A4B1344BA7902F00702D2B25200D1B2FA7A0A43D2B21A700023FB60FB6818461437BD465DF861
:400B0000047B70471070004080B485B000AF13460246FA710A46BA807B800123FB60BA8841F6FF739A4202D14FF40053BB807A8841F6FF739A4202D14FF400537B80FB79CD
:400B4000172B17D8FB79DB0003F1804303F5EC430433BB60BB68BA881A80FB79DB0003F1804303F5EC430633BB60BB687A881A800023FB60FB6818461437BD465DF8047B25
:400B8000704700BF80B485B000AF02460B46FA71BB710123FB60FB79172B07D8FB791A01064B1344BA795A720023FB60FB6818461437BD465DF8047B704700BF1070004096
:400BC00080B485B000AFF871B9717A713B710123FB60FB79172B34D8FB79DB0003F1804303F5EC43BA7902F07F02D1B27A79D201D2B20A43D2B21A70FB79DB0003F1804371
:400C000003F5EC433A7E1201D1B23A7902F00F02D2B20A43D2B25A70FB79DB0003F1804303F5EC433A7F02F00F02D2B29A70FB79DB0003F1804303F5EC430022DA70002337
:400C4000FB60FB6818461437BD465DF8047B704780B582B000AFFF23FB71FFF777FE0346BB71104B1B78182B12D90F4B1B78FB710C4B1B78013BDAB20A4B1A70FB79DB00A6
:400C800003F1804303F5F0431B78DAB2064B1A70BB791846FFF75EFEFB7918460837BD4680BD00BF1081FF1F1181FF1F80B485B000AFF871B980BA71FB700123FB60FB79C2
:400CC0005BB2002B23DBBB8823F47F6323F00F039BB2002B1BD1FB79DB0003F1804303F5F043BB60BB68BA881A80FB79DB0003F1804303F5F043BA799A70FB79DB0003F1FD
:400D0000804303F5F043FA78DA700023FB60FB6818461437BD465DF8047B704780B485B000AF13460246FA710A46BA807B800123FB60FB795BB2002B17DBFB79DB0003F1E8
:400D4000804303F5F0430433BB60BB68BA881A80FB79DB0003F1804303F5F0430633BB60BB687A881A800023FB60FB6818461437BD465DF8047B704780B483B000AF034679
:400D8000FB7101BE0C37BD465DF8047B704700BF80B582B000AF0346FB80FB88044A127802FB03F31846FFF7C7FD0837BD4680BD2081FF1F80B500AF022001214FF48042CD
:400DC00041F6FF7300F068FA03461A460A4B1A700C20012141F6FF7241F6FF7300F08CFA03461A46054B1A70054800F0B5FA002000F0C4FA80BD00BFB481FF1FB581FF1F7B
:400E00000510000080B582B000AF444B1B781846FFF71AFE424B1B781846FFF715FE414B1B78FF2B05D1FFF713FF03461A463D4B1A703C4B1A783B4B1B7810460C211A467B
:400E40000623FFF733FF374B1A78374B9BB2104645F6A0311A46FFF761FF304B1A78314B1B7810461946FFF78DFE304B1B78FF2B05D1FFF7EDFE03461A462C4B1A702B4BC5
:400E80001A782A4B1B7810460C211A460723FFF70DFF264B1978244B9AB2254B9BB2084611461A46FFF73AFF1D4B1A781F4B1B7810461946FFF766FE184B1B78184601215F
:400EC000FFF77CFD164B1B7818460121FFF776FDFFF73CFD0346FB71164B164A1278D2B242F02002D2B21A70FB791846FFF732FD114B114A1278D2B242F00102D2B21A7092
:400F00000D4B0D4A1278D2B242F00202D2B21A700A4B01221A600837BD4680BDB481FF1FB581FF1F2881FF1FB881FF1F2981FF1FD081FF1F946400407765004080E200E0AD
:400F400080B500AF074B1B68002B04D1FFF732FF044B01221A60FFF755FF00F059F8024B1B7880BDB081FF1F6764004080B500AF00F0FCF880BD00BF80B485B000AF03467E
:400F8000FB71084B1B78FB73FB7B002B02D1FB79002BF6D0FB7B18461437BD465DF8047B704700BF6764004080B483B000AF0346FB80FB88C3F10502084B33F812309AB2FD
:400FC000074B1B889BB29BB2D31A9BB29BB21BB218460C37BD465DF8047B7047D081FF1FE481FF1F80B582B000AF0346FB80B7F90630184600F00AF9034618460837BD46F3
:4010000080BD00BF80B400AFBD465DF8047B704780B500AF054B1B78002B04D100F008F8024B01221A7000F019F880BDC481FF1F80B500AF074B074A1278D2B242F0060222
:40104000D2B21A700C2000F069F8034B00221A8080BD00BF01590040DE81FF1F80B582B000AFFFF773FC0346FB71244B234A1278D2B242F00102D2B21A70214B204A12780B
:40108000D2B242F00102D2B21A701E4B1B78BB71BB7943F00203BB71BB7943F00103BB71184BBA791A70184B18221A70174B174A1278D2B242F04002D2B21A70134B134ABD
:4010C0001278D2B222F00302D2B21A70104BC8221A70104B02221A700F4B0F4A1278D2B242F00802D2B21A700A20FFF751FEFB791846FFF72FFC0837BD4680BDAB430040CB
:40110000BB4300400359004006590040055900400059004014460040275B004080B584B000AF0346FB71FB790A2B07D00C2B02D0082B06D008E0C223FB730BE08223FB730B
:4011400008E04223FB7305E0C223FB730020FFF713FE00BF044BFA7B1A70FB79184600F015F81037BD4680BD0259004080B400AF054B054A1278D2B242F00102D2B21A7084
:40118000BD465DF8047B70470059004080B584B000AF0346FB71FB790A2B08D00C2B02D0082B08D00BE04FF48053FB600DE04FF48063FB6009E04FF48073FB6005E000235A
:4011C000FB600020FFF7D8FD00BF0C4B00221A80FB6842F2107202FB03F303F62E13084A82FB03129212DB17D21A064B1A60064B00221A801037BD4680BD00BFDC81FF1F92
:40120000517BC637E081FF1FE481FF1F80B485B000AF0346FB801D4B1B889BB2002B09D01A4B1B889BB21AB213469B0013445B00FB6002E0164B1B68FB60FA88154B1B88E3
:401240009BB29BB2D31A9BB2FB80B7F9063042F2107202FB03F2B7F90630002B04DDFB68D90F0B445B1004E0FB68D90F0B445B105B421A44FB6892FBF3F37B817B891BB213
:4012800018461437BD465DF8047B7047DC81FF1FE081FF1FDE81FF1F80B584B002AFF871B971BA807B80134B01221A70114B1978FA79BB79002000900020019008461146F9
:4012C0001A460123FFF77CFC0A4B1978BA887B88084611461A46FFF717FC064B1B7818460221FFF7E3FB034B1B7818460837BD4680BD00BF2A81FF1F80B584B002AFF871C1
:40130000B971BA807B80134B00221A70114B1978FA79BB790020009000200190084611461A460023FFF74CFC0A4B1978BA887B88084611461A46FFF7E7FB064B1B7818469F
:401340000221FFF7B3FB034B1B7818460837BD4680BD00BF2B81FF1F80B485B000AF7860054B1B68FB60FB6840337A681A601437BD465DF8047B704708ED00E080B483B0FA
:4013800000AF0346FB71054BFA795201D2B21A700C37BD465DF8047B704700BF00E400E0014B1868704700BF8C81FF1F70B50E4B0E4D0024ED1AAD101E46AC4204D056F8AF
:4013C000242090470134F8E700F0A8FC084D094B0024ED1AAD101E46AC4204D056F8242090470134F8E770BD281D0000281D0000301D0000281D000010B50023934203D01D
:40140000CC5CC4540133F9E710BD02440346934202D003F8011BFAE7704700000EB400B54FF402719CB0ADF814106FF00041049107914FF6FF711DABADF81610084953F8B3
:40144000042B02900690086802A9019300F066F8029B00221A701CB05DF804EB03B070478C81FF1F2DE9F0478D688146AB420C4692461F4643D38B8913F4906F3DD02668DA
:4014800009690222C1EB0608666906EB460696FBF2F608F101023A44964238BF16465B050FD5314600F01AFB054698B121694246FFF7A2FFA38923F4906343F08003A381A5
:4014C00013E0324600F05EFB054670B94846216900F0C0FA0C23C9F80030A3894FF0FF3043F04003A381BDE8F087256166614544C8EB06062560A6603D46AF4200D23D46A9
:401500002A462068514600F089FAA36800205B1BA36023681D442560BDE8F0872DE9F0439DB003938B8907461C060D4616460CD50B6953B9402100F0D1FA2860286110B9C3
:401540000C233B60C7E040236B610023099320238DF8293030238DF82A3033461C4613F8012B1AB9B4EB06090FD002E0252AF5D1F8E73846294632464B46FFF773FF0130E2
:4015800000F0A480099B4B4409932378002B00F09D8000234FF0FF3204930793059206938DF853301A9304F101094D4E4C4630462178052200F024FA09F10109049B28B1E0
:4015C000861B0120B04003430493EEE7D90644BF20228DF853201A0744BF2B228DF8532022782A2A02D0079B21460EE0039A111D12680391002A01DB079204E0524243F028
:4016000002030792049301340AE00C4622780131303A092A03D80A2000FB0323F5E7079323782E2B19D163782A2B09D1039B02341A1D1B680392002BB8BF4FF0FF330BE0F6
:40164000611C00230C4622780131303A092A03D80A2000FB0323F5E70593224E21783046032200F0CDF930B1861B4020B040049B01340343049321781B480622661C8DF86D
:40168000281000F0BDF988B1184B33B9039B073323F007030833039314E003AB0093384604A92A46124BAFF3008007E003AB0093384604A92A460E4B00F08EF8B0F1FF3F3E
:4016C000804603D0099B4344099346E7AB895B0601D4099801E04FF0FF301DB0BDE8F083E61C0000EC1C0000F01C000000000000651400002DE9F84315461F468A680B6918
:4017000006469A42A8BF13462B6091F843200C46DDF820800AB101332B602368990602D52B6802332B60236813F006091DD094F843302268003318BF012392061FD5E118EF
:40174000302081F843005A1C94F845102244023382F8431013E03046394604F119020123C047013007D009F10109E2682B68D31A9945F0DBDBE74FF0FF30BDE8F883304636
:40178000394604F14302C0470130F4D023682A6803F00603E168042B08BFC2EB01052369A2680CBF25EAE57500259A42C4BFC3EB0203ED184FF00009A9450ADA3046394654
:4017C00004F11A020123C0470130D4D009F10109F2E70020BDE8F8832DE9FF470E7E80466E2E0C4691469A460C9D01F1430000F0A58011D8632E22D009D8002E00F0AF80DB
:40180000582E40F0BF8081F845607B4A4FE0642E1ED0692E1CD0B5E0732E00F0A48009D86F2E2BD0702E40F0AD800B6843F020030B6038E0752E21D0782E34D0A2E02B6841
:4018400001F142071A1D1B682A6081F842309DE022682B6812F0800F03D01A1D2A601D6805E05106F9D51A1D2A60B3F90050002D39DA2D236D4284F8433034E022682B6894
:4018800012F0800F03D01A1D2A601D6804E05206F9D51A1D2A601D88237E574A6F2B14BF0A2308231BE07823544A84F845302368296813F0800F01F104062E6001D00D6864
:4018C00002E05F06FBD50D88DE0744BF43F0200323601DB9236823F0200323601023002184F8431001E0444A0A236668002EA66003DB216821F00401216005B96EB104F1D0
:401900004201B5FBF3F603FB1655555D0F4601F801593546002EF4D100E00746082B0AD12368DD0707D5626823699A4203DC302307F8013C013FC01B20612CE009682B68C8
:4019400011F0800F626904D0191D29601B681A6005E04906F8D5191D29601B681A8000232361074617E02B681A1D2A601F68384600F03EF963682061984288BF23612369B7
:40198000636005E004F1420784F8426001232361002384F84330CDF800A04046214603AA4B46FFF7A7FE013002D14FF0FF301FE0404649463A462369D0470130F5D0236814
:4019C0009B0705D4E068039B9842B8BF18460FE00025E268039BD31A9D42F3DA4046494604F119020123D0470130DED00135F0E704B0BDE8F08700BFF71C0000081D00002F
:401A000010B5C9B202449042034605D01C7801308C42F8D1184610BD002010BD814270B501D300230EE08C18A042FAD28518134613F1FF3305D351426618F65C2944CE54A7
:401A4000F6E770BD934203D0CC5CC4540133F9E770BD000030B500293CD051F8042C0B1F1D49002AB8BF9B180A680C4612B95A600B6030BD93420DD219685818904203D1D0
:401A80005A581144426819605A60236030BD994203D80A4651680029F9D1146815199D420AD11B682344D0188842136012D10868034413604B680CE002D90C23036030BDA7
:401AC00018681C188C4203D10C684968204418605960536030BD00BFCC81FF1F70B5CD1C25F0030508350C2D38BF0C25002D06463FDB8D423DD3214B1C6818462146A1B1CA
:401B00000B685B1B0ED40B2B03D90B60CC18CD501FE08C4202D1626802601AE04B6863600C4616E00C464968E9E7154C23681BB9304600F04DF820602946304600F048F805
:401B4000431C014615D0C41C24F0030484420AD1256004F10B00231D20F00700C31A0BD05A42E25070BD3046611A00F031F80130EED10C233360002070BD00BFCC81FF1F7C
:401B8000C881FF1FF8B5064614460D4621B91146BDE8F840FFF7A2BF1AB9FFF75BFF2046F8BD00F02DF8A0420ED230462146FFF795FF074650B129462246FFF71DFC30468D
:401BC0002946FFF747FF01E02846F8BD3846F8BD38B5064C0023054608462360FEF73EFB431C02D1236803B12B6038BDE881FF1F034613F8012B002AFBD1181A0138704747
:401C000051F8040C002802DA04390B58184404387047000000000000434F4D20506F7274204F70656E0000004F766572616C6C3A20256C64206D560D0A00000050726F644F
:401C4000756374696F6E3A20256C64206D560D0A000000004670756D703A20256C64206D560D0A0046696E6A3A20256C64206D560D0A000049676E6974696F6E3A20256C3C
:401C800064206D560D0A0000526566563A20256C64206D560D0A0A0A0A0A0A0D00000000456D756C6174656420446174613A202578200D0A00000000105100406000F05190
:401CC0000040100000000140001000140140000800400140000A004C0140000200500140200000004300232D302B2000686C4C006566674546470030313233343536373815
:401D000039414243444546003031323334353637383961626364656600000000F8B500BFF8BC08BC9E4670474D00000045030000F8B500BFF8BC08BC9E46704729000000B7
:401D4000501D00000881FF1F880000006000000000000000F081FF1F807F00000300000000366E01C05D0000180000000000E02EFFFFFFFF000000000000000000000000F2
:401D80000000000000000000000000000000000000000000E41C00000000000000000000000000000000000000000000000000000000000000000000000000000000000023
:401DC00000000000000000000000000000000000000000002C81FF1F0000000000000000000000000000000000000000000000000000000000000000000000000000000018
:401E000000000000000000000000000000000000000000000000000000000000000000000000000000000000000000000000000000000000000000000000000000000000A2
:401E40000000000000000000000000000000000000000000000000000000000000000000000000000000000000000000000000000000000000000000000000000000000062
:401E80000000000000000000000000000000000000000000000000000000000000000000000000000000000000000000000000000000000000000000000000000000000022
:401EC00000000000000000000000000000000000000000000000000000000000000000000000000000000000000000000000000000000000000000000000000000000000E2
:020000040003F7
:0200000480007A
:4000000004520040015B004002640040026500400E000140280101402C020140380301401D04014043050140140601403A0701404408014041090140050B0140010D01401D
:4000400030140140461501403C160140401701403F180140411901400B1B01400840014010410140064201400643014004460140044701400248014001490140054C0140AD
:40008000094D014009500140025101400013011561806440278484058838840F89720B021F01220126023001310134023702580459045F01D804D904DF01004001200440AA
:4000C000052008100A400B010C080E40108011041205141015021604170419211A4020402280230129212D2030183240350136803704386039023A073C403E023F20C0C3FB
:40010000C23BC47FCA25CCDECEBF000F080D09030A020C080D030E071103140F1503220F2303240625032609280F29022B01300431023208340136023701580459045F01D0
:4001400087088B01931095019F04A104A201A502A908AF02B401B71FB980BF40D804D904DF01004201200440052108040A080F20101012411414170619101A081B101C284F
:400180001E801F4020022302248229612A452B102C102D202E02309C320234043501386039043A023C403F2080088301840487409040930194209504968099219E069F04EB
:4001C000A488A710C0DBC226C47DCAEFCCCFCE3FE0010301050809200B100D400F8011801340151017201B021D04230425012B082D0231FF3B083F01560257355804590468
:400200005B0C5C105F01D804D904DF010042012002400440052108100F1012091311141416402108220229612A092D202E022F013092311032083304340235113608384092
:4002400039143B033C405A106308688269146A807010714072087940811090409301942095049680980499319A029D409F04A001A480A602B011B242B441C0DBC222C47B3E
:40028000CABFCCEFCE1FD604D804DE08E404EA60EE90580459045F0184018B0191039503A502AF04B304B503B601B920BE40BF10D401D804D904DB0CDF0100400228044042
:4002C000052008040C14105012051440160117201802200821042208232028042A012B112C402D202E8231183241341235103608386039083A023C405980794081A0824039
:400300008E089040911095409610980699309A03A608A704B440B508C0C7C264C4DFCABFCCEFCE1FD608DE08E204E810EE0402020308120113041D012303270828012B0414
:400340003003310233013508360337043F5054185804590C5B045C095D105F0183C385C78718882C89188A138D80900891DF940C9704980499449B209D1C9FC2A02EA1DCD9
:40038000A211A301A433A508A60CA83FA9C0AD10AE12B020B20EB320B41CB5D8B601B71FB880BA20BBA0BE01D608D804D904DB04DC11DD90DF010120064008110B100E8091
:4003C000112012A91710180119211B081E801F802004210822A025402754289129502A082F983108329033023502374038463A013B103C0142204304440245405A805E0151
:400400006240640266207E018310888089208F40918092809A02A110A324B510B642C012C21EC44FCAEFCC9FCE8FD688D838DE10E440E850EC10EE0483049180A320B3208E
:40044000E88081400B050F081110150317041A011C011D031F0C2001250A260127042D032E012F04310F331036013B023E403F044052410345E0460B47C0482649FF4AFF17
:400480004BFF4EF04F44500C5401580459045A045B045C105D115F0166C06A406B02D804D904DF01004202280440068C080209440A040E2810201101128614221507194088
:4004C0002101220523402B122D842E803109328034023510363C388039203C403E08411849014B4050805202530259415A18818484218E1290C0912092049602974098224B
:4005000099109A84A020A148A208A310A480A821AA82AD20B002C0DFC26FC4AFCA5ACCEBCE5CD006D208D60FE810EA01EC02EE04580459045F01840C86138B208D108E0C92
:400540008FAC901192069440950C97719B039D149E08A110A340A420A5DCA603A722A840AC11AD09AE0EAFD0B030B240B3E0B40FB51FB80ABA20BB08BE04C006C604C9FF3F
:40058000CA07CBFFCC40CD20CEF0CF05D008D203D302D804D904DA04DB04DC11DD01DF01E040E1A8E240E32000040302044205200604080809800B400E081028118014123D
:4005C000168018841A041B16210822202B922D202E8230803108322034023510360C38203B403C404804503051905380680869406A106B0285488B02904094209540961233
:40060000981A99309E84A004A208A508A620A714A808AD10AF01B401C0D5C24DC4B7CABBCCEECE1CD204EE04580459045F01850C8801890C8A069004910A92019324950356
:40064000980299039A019F03A303A40FA505A728A80FA903AB10AC08AF03B10CB303B407B608B730BF40C025C106C203C401C5C0C6E0C80AC9FFCAFFCBFFCC62CDA0CEF0F8
:40068000CF41D00CD602D713D804D904DA04DB04DC11DD11DF01E640E702E910EA30EB10ED10EE10EF12012006020710082009020FA81002111415C01702180219B020618F
:4006C000210228A029902D402E022F20310232A834103640371039143F884005430849824A0853105901680269147140720873107B308A0190049180944296239730988000
:4007000099019A029D529E08A2A8A36CB208B302C0A2C27AC497CADFCC3FCE56D00ED20CD601E020E840EE048C208E1096209C20A940AB20AC10B010B241B302E8301302E7
:40074000168031203B023E80C430CC10CE6052205302570858045F8064088404862097029B02A520D4E0D660D880E210E64097029B02A520B30AB408B7808120A520AB018C
:40078000B702E220EE201B042440C608C80144029040AB04D0042408C820B40490029C02A840B401E802128070018E809002B402C408DC01E202E8080003010108010A0349
:4007C0000C030D0110031A031C030003100A000000000000003F3F0080004080800080000000000000010000000000000000000000000000000000000000000000000000B1
:4008000000000000000000000000000000000000000000000000000000000000000000000000000000000000000000000000000000000000000000000000000000000000B8
:400840000000000000000000000000000000000000000000000000000000000000000000000000000000000000000000000000000000000000000000000000000000000078
:400880000000000000000000000000000000000000000000000000000000000000000000000000000000000000000000000000000000000000000000000000000000000038
:4008C00000000000000000000000000000000000000000000000000000000000000000000000000000000000000000000000000000000000000000000000000000000000F8
:0200000490006A
:0400000000004005B7
:0200000490105A
:04000000BC90ACAF55
:0200000490303A
:02000000748BFF
:0200000490402A
:4000000000000000000000000000000000000000000000000000000000000000000000000000000000000000000000000000000000000000000000000000000000000000C0
:400040000000000000000000000000000000000000000000000000000000000000000000000000000000000000000000000000000000000000000000000000000000000080
:400080000000000000000000000000000000000000000000000000000000000000000000000000000000000000000000000000000000000000000000000000000000000040
:4000C0000000000000000000000000000000000000000000000000000000000000000000000000000000000000000000000000000000000000000000000000000000000000
:0200000490501A
:0C00000000012E16106900012E2384F46C
:00000001FF